:1000000012C02CC02BC02AC029C028C027C026C0BF
:1000100025C024C023C022C021C020C01FC01EC0D4
:100020001DC01CC01BC011241FBECFE5D4E0DEBF25
:10003000CDBF10E0A0E6B0E0E6E8F1E002C0059038
:100040000D92AC36B107D9F720E0ACE6B0E001C0C4
:100050001D92AE36B207E1F764D093C0D1CFCF93F3
:10006000DF93CDB7DEB72F970FB6F894DEBF0FBE84
:10007000CDBF1C861D861E861F862BE0E0E6F0E0C5
:10008000DE01119601900D922A95E1F7883E23E05A
:10009000920784F420E031E0320F84369105BCF4FD
:1000A0002D8720E031E0320F8A309105A4F00A97C5
:1000B000232FF8CF21E0885E934031E0320F883E55
:1000C00043E0940714F42C87E5CF232FF4CF845614
:1000D0009109232FE0CF2E878F87FE013C969E014A
:1000E0002F5E3F4F81E085BBA19141E050E04C0F76
:1000F0005D1F4A0F511DDA019C9192BB880FA3EF3F
:10010000B1E01197F1F700C000002E173F0759F733
:100110002F960FB6F894DEBF0FBECDBFDF91CF9103
:1001200008958FE781BB8FEF82BB17BA88BB8FE042
:1001300084BB15BAD0E0C0E001E010E0B09911C076
:1001400080916C0090916D00019759F4CF3087E257
:10015000D80760F010926D0010926C00D0E0C0E003
:1001600002C0B09909C0CE017ADFE8CF2196109283
:100170006D0010926C00F7CF10936D0000936C002F
:06018000F2CFF894FFCF5E
:0C018600407924301912027800107F002C
:00000001FF
